:100000000C94C7030C94D9030C94D9030C94DC2BE7
:100010000C94DF280C94D9030C94D9030C94D903C5
:100020000C94D9030C94D9030C94D9030C942E2965
:100030000C94D9030C94D9030C94D9030C94D903D0
:100040000C9418290C94D9030C94532B0C94B22BB8
:100050000C94D9030C94D9030C94D9030C94D903B0
:100060000C94D9030C94D903084AD73B3BCE016EBC
:1000700084BCBFFDC12F3D6C74319ABD56833DDAFF
:100080003D00C77F11BED9E4BB4C3E916BAAAABE0E
:10009000000000803F05A84CCDB2D44EB93836A937
:1000A000020C50B9918688083CA6AAAA2ABE000074
:1000B00000803F000D0A4772626C20302E396A20A2
:1000C0005B27242720666F722068656C705D0D0ABF
:1000D000000D0A003D00244E005D0D0A005B302E2D
:1000E000396A2E32303136303732363A005D0D0AF9
:1000F000005B544C4F3A005D0D0A002C005B473901
:10010000323A005D0D0A002C003A003330003238DC
:10011000005B47005D0D0A0020530020460020547C
:1001200000204D3800204D3900204D3500204D3441
:1001300000204D3300204D3200204D3100204D3045
:100140000020473934002047393300204739310037
:10015000204739300020473230002047323100201C
:1001600047313900204731380020473137002047D8
:10017000004733382E0047383000473300473200FD
:100180004731004730005B002424202876696577DA
:10019000204772626C2073657474696E6773290DF1
:1001A0000A242320287669657720232070617261F4
:1001B0006D6574657273290D0A2447202876696578
:1001C0007720706172736572207374617465290D94
:1001D0000A2449202876696577206275696C642055
:1001E000696E666F290D0A244E202876696577208E
:1001F0007374617274757020626C6F636B73290D18
:100200000A24783D76616C756520287361766520D7
:100210004772626C2073657474696E67290D0A24D5
:100220004E783D6C696E6520287361766520737425
:10023000617274757020626C6F636B290D0A2443C0
:100240002028636865636B2067636F6465206D6F4A
:100250006465290D0A245820286B696C6C20616C38
:1002600061726D206C6F636B290D0A24482028721F
:10027000756E20686F6D696E67206379636C6529A0
:100280000D0A7E20286379636C6520737461727433
:10029000290D0A2120286665656420686F6C642931
:1002A0000D0A3F202863757272656E742073746145
:1002B000747573290D0A6374726C2D782028726529
:1002C000736574204772626C290D0A000D0A00489C
:1002D0006F6D696E67206661696C0050726F626550
:1002E000206661696C0041626F7274206475726986
:1002F0006E67206379636C6500536F6674206C6968
:100300006D69740048617264206C696D69740041A4
:100310004C41524D3A20003E0D0A002C4C696D3A7A
:10032000002C52583A002C4275663A002C002C578B
:10033000506F733A002C002C4D506F733A003C44C0
:100340006F6F72003C436865636B003C416C617287
:100350006D003C486F6D65003C486F6C64003C521A
:10036000756E003C49646C6500290D0A00206D61C2
:10037000782074726176656C2C206D6D002061634D
:1003800063656C2C206D6D2F7365635E3200206D8C
:10039000617820726174652C206D6D2F6D696E001F
:1003A0002C20737465702F6D6D007A0079007800D1
:1003B0002028003D0024002028686F6D696E6720AA
:1003C00070756C6C2D6F66662C206D6D290D0A00A2
:1003D0002028686F6D696E67206465626F756E6353
:1003E000652C206D736563290D0A2432373D00208A
:1003F00028686F6D696E67207365656B2C206D6D65
:100400002F6D696E290D0A2432363D002028686F51
:100410006D696E6720666565642C206D6D2F6D6952
:100420006E290D0A2432353D00290D0A2432343D4F
:10043000002028686F6D696E672064697220696E9C
:1004400076657274206D61736B3A002028686F6D59
:10045000696E67206379636C652C20626F6F6C290D
:100460000D0A2432333D00202868617264206C69D3
:100470006D6974732C20626F6F6C290D0A243232FF
:100480003D002028736F6674206C696D6974732C4D
:1004900020626F6F6C290D0A2432313D00202872D2
:1004A00065706F727420696E636865732C20626F6B
:1004B0006F6C290D0A2432303D00202861726320C0
:1004C000746F6C6572616E63652C206D6D290D0A09
:1004D0002431333D0020286A756E6374696F6E2085
:1004E000646576696174696F6E2C206D6D290D0AE3
:1004F0002431323D00290D0A2431313D002028737A
:100500007461747573207265706F7274206D61739D
:100510006B3A00202870726F62652070696E2069E6
:100520006E766572742C20626F6F6C290D0A24310F
:10053000303D0020286C696D69742070696E7320ED
:10054000696E766572742C20626F6F6C290D0A24B7
:10055000363D0020287374657020656E61626C659D
:1005600020696E766572742C20626F6F6C290D0A9B
:1005700024353D00290D0A24343D00202864697289
:1005800020706F727420696E76657274206D61736D
:100590006B3A00290D0A24333D00202873746570DE
:1005A00020706F727420696E76657274206D61734D
:1005B0006B3A002028737465702069646C65206450
:1005C000656C61792C206D736563290D0A24323DB9
:1005D000002028737465702070756C73652C20750D
:1005E000736563290D0A24313D0024303D005D0D03
:1005F0000A003A002C005B5052423A000D0A0049B2
:100600006E76616C69642067636F64652049443A63
:1006100000556E646566696E656420666565642074
:100620007261746500556E737570706F7274656475
:1006300020636F6D6D616E64004D6F64616C206747
:10064000726F75702076696F6C6174696F6E004CA3
:10065000696E65206F766572666C6F7700486F6DA6
:10066000696E67206E6F7420656E61626C656400F0
:10067000416C61726D206C6F636B004E6F7420690A
:10068000646C6500454550524F4D20726561642091
:100690006661696C2E205573696E672064656661BA
:1006A000756C74730056616C7565203C2033207541
:1006B0007365630053657474696E67206469736160
:1006C000626C65640056616C7565203C20300049A1
:1006D0006E76616C69642073746174656D656E74A7
:1006E00000426164206E756D62657220666F726D86
:1006F000617400457870656374656420636F6D6D27
:10070000616E64206C6574746572006572726F72DC
:100710003A20006F6B0D0A005D0D0A00526573747C
:100720006F72696E672064656661756C74730050E2
:10073000676D20456E6400436865636B20446F6F8E
:10074000720044697361626C656400456E61626C3D
:1007500065640043617574696F6E3A20556E6C6F05
:10076000636B656400272448277C2724582720745E
:100770006F20756E6C6F636B0052657365742074C7
:100780006F20636F6E74696E7565005B00001124E5
:100790001FBECFEFD8E0DEBFCDBF26E0A0E0B1E0C6
:1007A00001C01D92AC3CB207E1F70E94BE2F0C9431
:1007B000CB390C9400008F929F92AF92BF92CF9250
:1007C000DF92EF92FF920F931F93CF93DF937C0101
:1007D0006B01DC01EC91F0E0EB56FA4F8081EF0108
:1007E0008D3229F52296818101E0912CF0E010E014
:1007F00020E030E0A9015E01E0EDE80FEA3018F5F5
:10080000FF5FF930E0F491101150A5E0B0E00E94D4
:10081000B1399B01AC01220F331F441F551F2E0F0E
:10082000311D411D511D2196D5018C91E4CF8B3294
:1008300019F0219600E0D9CF22968181FBCF91104B
:10084000F2CF1F5FF0CFEE3F29F4911003C099243F
:100850009394E9CFFF23F9F0CA01B9010E94C4368D
:100860004B015C0120E030E0A9010E9412368111A9
:100870002BC0002309F445C0B7FAB094B7F8B09480
:10088000F60180829182A282B382C559D540C150BF
:10089000F701C083F1E08F2FDF91CF911F910F916E
:1008A000FF90EF90DF90CF90BF90AF909F908F9090
:1008B00008952AE037ED43E25CE3C501B4010E94EC
:1008C00074384B015C011E5F1F3F9CF31F3F59F4BE
:1008D0002DEC3CEC4CEC5DE3C501B4010E94743896
:1008E0004B015C01C6CF112321F220E030E040E251
:1008F00051E4C501B4010E9474384B015C011150F0
:10090000F2CFD6018D929D92AD92BC921397BDCF3E
:100910008F929F92AF92BF92CF92DF92EF92FF920F
:100920000F931F93CF93DF93EB0127EEE22E25E089
:10093000F22E8C016B018CE0C80ED11C699179916B
:1009400089919991F70181909190A190B1907F0147
:100950000E94C636A50194010E941C36F8016193DD
:100960007193819391938F01CC15DD0539F7DF9158
:10097000CF911F910F91FF90EF90DF90CF90BF909C
:10098000AF909F908F900895CF93DF93C0916805AB
:10099000D09169052097B9F081E080936B05609153
:1009A00081057091820580918305909184059B015A
:1009B000AC010E947438698B7A8B8B8B9C8B109264
:1009C000690510926805DF91CF91089590911806FE
:1009D000492F80911906282F90FF11C094E080FFC5
:1009E00010C080E241FD986021FD806442FD90616D
:1009F00022FD80689093E2018093E101089590E0E8
:100A0000EECF80E0EFCF8091240682FF1BC0289AB2
:100A1000809137068C70A9F08091E1018093F301F9
:100A20008091E2018093F201809117068250990B28
:100A3000880F81958093F10180916F00826080938F
:100A40006F0008952898E4CFE0EBF0E080818F7785
:100A500080830895E0911D0191E09E0F903409F488
:100A600090E020915E01291761F0F0E0E25EFE4F18
:100A7000808390931D018091C10080628093C100AA
:100A800004C02091E50524FFECCF0895CF93DF93B8
:100A9000C5E9D5E08991811103C0DF91CF91089517
:100AA0000E942A05F7CF9FB7F8948091E5058260F0
:100AB0008093E5059FBF08958F929F92AF92BF925A
:100AC000CF92DF92EF92FF920F931F93CF93DF931A
:100AD000CDB7DEB72A970FB6F894DEBF0FBECDBFF5
:100AE0006B017C01142F20E030E0A9010E94123636
:100AF00087FF07C08DE20E942A05F7FAF094F7F805
:100B0000F094012F023008F054C010FF0AC020E01A
:100B100030E040E251E4C701B6010E9474386B0135
:100B20007C0120E030E040E05FE3C701B6010E94B5
:100B30001D350E948E369E012F5F3F4F7901F901CE
:100B4000E10FF11D2EE2208300E02AE0822E912C9D
:100B5000A12CB12C6115710581059105B1F5F70145
:100B6000E00FF11D80E3011708F440C0011308C035
:100B7000E1E0E00FEE0DFF2DF11D0E5F80E38083BD
:100B80000E0D1F2D111DE016F10699F52A960FB6D0
:100B9000F894DEBF0FBECDBFDF91CF911F910F91B3
:100BA000FF90EF90DF90CF90BF90AF909F908F908D
:100BB000089520E030E048EC52E4C701B6010E94FD
:100BC00074386B017C0102509DCF011301C00F5F8F
:100BD0006701C00ED11CA50194010E948939605D96
:100BE000F6016083B901CA010F5FB4CF0F5F819333
:100BF000BACFF80182918F010E942A05C4CF43E049
:100C00000C945C052091240640E020FF07C02BE8EF
:100C100032E441E25DE30E94743841E00C945C05EB
:100C20002091240643E020FF07C02BE832E441E294
:100C30005DE30E94743844E00C945C05CF93DF932D
:100C4000EC01FE0184912196811103C0DF91CF91C7
:100C500008950E942A05F5CFE1E0F1E0A6E3B6E0B1
:100C600014964D915D916D917C91179740835183BE
:100C70006283738318964D915D916D917C911B9762
:100C800044835583668377831C968D919D910D9047
:100C9000BC91A02D80879187A287B38708952F925A
:100CA0003F924F925F926F927F928F929F92AF92FC
:100CB000BF92CF92DF92EF92FF920F931F93CF9349
:100CC000DF9300D000D0CDB7DEB70091EB04002356
:100CD00009F486C0098339813150398310910702A4
:100CE000131709F466C0C32ED12CE9E23E9FC00160
:100CF00011249C01285F3D4F7901F9017588868890
:100D00009788A08C61A172A183A194A19B01AC01E1
:100D10000E941D35F70125A136A147A150A50E94CB
:100D20007438B62EE72EF82E9B83262F372F482FA8
:100D3000592F672D782D892D9A2D0E94123687FF05
:100D400003C0B72C7401AB8289E28C9DF0018D9DAC
:100D5000F00D1124E85FFD4F8B2D9E2DAF2DBB8133
:100D6000818B928BA38BB48BF9818F2FF11101C0F2
:100D700082E1FF24FA94F80E3090EA041F1133C088
:100D8000131102C00E94C404E9E21E9FC001112495
:100D9000885F9D4F9A83898333243394310EF2E127
:100DA0003F1201C0312C89E2282E031185C0109317
:100DB00007020F900F900F900F90DF91CF911F912E
:100DC0000F91FF90EF90DF90CF90BF90AF909F90EA
:100DD0008F907F906F905F904F903F902F900895ED
:100DE00022E1298378CF298189E2289F900111246B
:100DF000285F3D4F3C832B8329E2E22E8F2C912CE0
:100E0000FE9CC0011124FC01E85FFD4FFA83E983D9
:100E1000F11002C092E1F92EFA94F31002C00E9480
:100E2000C404E89CC001E99C900D11249C01285F3A
:100E30003D4F6901F901458856886788708CA30188
:100E4000920161897289838994890E94123688236C
:100E500039F1F60161A172A183A194A19B01AC01BA
:100E60000E941D35F60125A136A147A150A50E947B
:100E70007438EB81FC8121893289438954890E942D
:100E80001D354B015C01AC019B01C301B2010E9405
:100E90003438F60118165CF4818A928AA38AB48ADF
:100EA00029813A813C832B831F11A8CF6DCF418AC2
:100EB000528A638A748AF4CFC32CD12C329CC0012D
:100EC00011249C01285F3D4F7901E981FA81418815
:100ED000528863887488F90181889288A388B488CD
:100EE000A5019401C301B2010E94123687FF26C0FA
:100EF000E981FA8161A172A183A194A19B01AC0156
:100F00000E941D35E981FA8125A136A147A150A58E
:100F10000E947438A30192010E941D352B013C01EF
:100F2000AC019B01C501B4010E943438181634F499
:100F3000F701418A528A638A748A132D2C9CF0012E
:100F40002D9CF00D1124E85FFD4F258936894789D6
:100F5000508D61897289838994890E94123681112A
:100F600001C0132D3394F2E13F1201C0312CFA82FB
:100F7000E9821BCF93B18091240686FF0BC0967146
:100F800059F091FB882780F992FD8260907129F0D9
:100F9000846008959095F3CF80E00895EBE6F0E04B
:100FA0008081897E8083E8E6F0E080818E7F808387
:100FB000089584B1897E84B985B1866185B98091AF
:100FC000240683FF0BC080916B00866180936B00C9
:100FD0008091680081608093680008950C94CE072A
:100FE000F894F999FECF92BD81BD81E08FBB20B509
:100FF000862F8227082E000C990B50E0862395231C
:10100000892B49F084E16F3F11F060BD84E08FBB14
:10101000F99A789408952617E1F360BD84E2F7CF3A
:101020009F92AF92BF92CF92DF92EF92FF920F9377
:101030001F93CF93DF935C018A017B01E40EF51EC1
:10104000EB01912C6C01C61AD70ACE018C0D9D1DA7
:1010500021E0911007C0292D990C330B232F221F5B
:101060002227221F6991962E920E0E94F007CE151C
:10107000DF0559F7692DC501800F911FDF91CF91D1
:101080001F910F91FF90EF90DF90CF90BF90AF90A6
:101090009F900C94F00769E090E080E00E94F007D8
:1010A0004DE450E067EE75E081E090E00C941008AC
:1010B0002DE0829FC00111244CE050E09E5F0C9413
:1010C0001008F999FECF92BD81BD81E08FBB80B53C
:1010D00008959F92AF92BF92CF92DF92EF92FF92CC
:1010E0000F931F93CF93DF935B018A017C01E40E82
:1010F000F51EEC01912C6B01C81AD90AC6018C0FA0
:101100009D1F0E94610821E0911007C0292D990CB4
:10111000330B232F221F2227221F982E920E8993F2
:10112000CE15DF0559F7C501800F911F0E94610898
:1011300021E030E0891511F030E020E0C901DF91B5
:10114000CF911F910F91FF90EF90DF90CF90BF90C4
:10115000AF909F900895CF93DF9391E5899FE00131
:101160001124DD5F40E550E0BE0185E995E00E9475
:101170006908892B69F41092950540E550E065E90E
:1011800075E0CE010E94100880E0DF91CF910895B4
:1011900081E0FBCF43980895CF92DF92EF92FF92C8
:1011A0006A017B01811106C0FF90EF90DF90CF9024
:1011B0000C942405813009F045C02D9883E8809374
:1011C000B0008091B100887F82608093B10020E000
:1011D00030E0A901C701B6010E941236181624F7A3
:1011E00020E030E0A901C701B6010E94123687FD58
:1011F0002BC020E030E04AE754E4C701B6010E946A
:101200003438181634F4C12CD12C8AE7E82E84E443
:10121000F82E2CE53FE842E85EE3C701B6010E94E4
:10122000743820E030E040E05FE30E941D350E940A
:1012300001370E9495366093B300FF90EF90DF90E6
:10124000CF9008952D9ABACFC12CD12C7601E1CF41
:101250001F93CF93DF93182FEB018DE0189FB00100
:1012600011247E5F4CE050E0CE010E946908892B7A
:1012700071F48CE0FE0111928A95E9F7BE01812F8D
:101280000E94580880E0DF91CF911F91089581E07E
:10129000FACFEF92FF920F931F93CF93DF93CDB7C7
:1012A000DEB72C970FB6F894DEBF0FBECDBF182F58
:1012B00080FFC1C08AE08093170689E180931A06F7
:1012C000109218061092190683E080931B068AE09C
:1012D00097EDA3E2BCE380931C0690931D06A093B8
:1012E0001E06B0931F068FE692E1A3E0BBE3809356
:1012F000200690932106A0932206B0932306109215
:10130000250680E090E0A8ECB1E480932606909357
:101310002706A0932806B093290680E090E0AAEF64
:10132000B3E480932A0690932B06A0932C06B093E7
:101330002D062AEF30E030932F0620932E0640E052
:1013400050E060E87FE340933006509331066093AD
:101350003206709333061092240640E050E06AE7AC
:1013600073E44093E7055093E8056093E9057093B3
:10137000EA054093EB055093EC056093ED057093FF
:10138000EE054093EF055093F0056093F1057093DF
:10139000F2058093F3059093F405A093F505B093BF
:1013A000F6058093F7059093F805A093F905B0939F
:1013B000FA058093FB059093FC05A093FD05B0937F
:1013C000FE0580E090EAACE0B7E48093FF059093DF
:1013D0000006A0930106B093020680930306909343
:1013E0000406A0930506B093060680930706909323
:1013F0000806A0930906B0930A0680E090E0A8E4EE
:10140000B3EC80930B0690930C06A0930D06B0935B
:101410000E0680930F0690931006A0931106B093CA
:1014200012068093130690931406A0931506B093AA
:1014300016060E944B0811FF10C0CE0101967C01D8
:101440008CE0F70111928A95E9F700E0B701802F4F
:101450000E9458080F5F0830C9F712FF0AC060E009
:1014600080E093E00E94F00760E081E593E00E9455
:10147000F00713FF05C060E08EEA93E00E94F007DA
:101480002C960FB6F894DEBF0FBECDBFDF91CF9183
:101490001F910F91FF90EF900895E1E0F1E08CE152
:1014A000DF011D928A95E9F71092EA041092EB048D
:1014B00081E080930001109207020895019708F4DB
:1014C0000895EFE9FFE03197F1F700C00000F6CF93
:1014D00080916F008D7F80936F0080918100887F65
:1014E0008160809381001092E30180911A068F3F02
:1014F00021F490913506992391F09091370694301C
:1015000071F090E00E945E0A81E09091240692FFC3
:1015100002C091E08927882321F0289A089580E06D
:10152000F4CF289808950E94680AEAE6F5E08BE275
:10153000DF011D928A95E9F7E4EEF1E083E2DF0135
:101540001D928A95E9F7109269051092680510922C
:10155000EC041092120581E08093ED041092E301F7
:101560000E94E6048BB1837E9091E201892B8BB9B6
:101570008BB18F719091E101892B8BB90895809186
:10158000E50584FD26C09FB7F8948091E50580614C
:101590008093E5059FBF0E9424050E94CA088091A0
:1015A0003706982F9C7021F490913806913089F479
:1015B0009FB7843049F4F894809135068062809317
:1015C00035069FBF0C94680AF894809135068860B0
:1015D000F6CF08952F923F924F925F926F927F9233
:1015E0008F929F92AF92BF92CF92DF92EF92FF9233
:1015F0000F931F93CF93DF93CDB7DEB7CC54D109B0
:101600000FB6F894DEBF0FBECDBF8091370680774E
:101610008FAF209181052F8730918205388B4091C3
:101620008305498B509184055A8B81110C94861344
:101630008091EB0421968FAF2197A0916805B0911E
:101640006905BA83A983B0916B05B98FE0916A05EA
:10165000EEA3209174053091750540917605509167
:1016600077052AAB3BAB4CAB5DAB30918D053B872F
:1016700040918E054C8720908F05309090055091B9
:1016800085055A8F809186058B8F909187059C8F59
:10169000A0918805AD8FB0918905BC8BE0918A053A
:1016A000ED8BF0918B05FE8B20918C052F8B30916B
:1016B00091053E8F409192054F8F5091930558A30D
:1016C0008091940589A390917C059B8BA0917D05C9
:1016D000AB83B0917E05BF83E0917F05ED87F091EC
:1016E0008005FE872091700530917105409172054B
:1016F000509173052FA338A749A75AA730916C05BD
:101700003AAF40916D054BAF50916E055CAF809143
:101710006F058DAF209178053091790540917A055C
:1017200050917B052EAB3FAB48AF59AF30911205BE
:101730003EAF4091ED0449AB5091EA04588F80913F
:10174000070222968FAF22978091EC0459A9851346
:1017500095C08A8D9B8DAC8DBD8D809385059093B2
:101760008605A0938705B09388058E8D9F8DA8A1CF
:10177000B9A18093910590939205A0939305B0939E
:1017800094058B819F81AD85BE8580937D05909367
:101790007E05A0937F05B09380058C899D89AE89D5
:1017A000BF898093890590938A05A0938B05B09398
:1017B0008C058F859889A989BA8980938105909332
:1017C0008205A0938305B09384058B8980937C0563
:1017D0008B859C85D10180938D0590938E05A09378
:1017E0008F05B09390059EAD90931205AEA1A09386
:1017F0006A05E981FA81F0936905E09368052AA9F1
:101800003BA94CA95DA920937405309375054093BD
:10181000760550937705388D3093EA048AAD9BADF9
:10182000ACADBDAD80936C0590936D05A0936E0536
:10183000B0936F058FA198A5A9A5BAA5809370054F
:1018400090937105A0937205B09373052EA93FA9DB
:1018500048AD59AD209378053093790540937A05CA
:1018600050937B05398D30936B0549A94093ED0466
:1018700022965FAD2297509307029FC0A981BA813B
:10188000AB2B09F0AAC22196BFAD2197E88DBE13FC
:10189000AEC08A8D9B8DAC8DBD8D80938505909358
:1018A0008605A0938705B09388058E8D9F8DA8A18E
:1018B000B9A18093910590939205A0939305B0935D
:1018C00094058B819F81AD85BE8580937D05909326
:1018D0007E05A0937F05B09380058C899D89AE8994
:1018E000BF898093890590938A05A0938B05B09357
:1018F0008C058F859889A989BA89809381059093F1
:101900008205A0938305B0938405FB89F0937C0541
:101910008B859C85D10180938D0590938E05A09336
:101920008F05B09390052EAD209312053EA1309304
:101930006A0510926905109268058AA99BA9ACA94D
:10194000BDA98093740590937505A0937605B09317
:10195000770521969FAD21979093EA048AAD9BADC0
:10196000ACADBDAD80936C0590936D05A0936E05F5
:10197000B0936F052FA138A549A55AA520937005EE
:101980003093710540937205509373058EA99FA9FA
:10199000A8ADB9AD8093780590937905A0937A05A9
:1019A000B0937B05998D90936B05A9A9A093ED0445
:1019B0002296BFAD2297B0930702C45BDF4F0FB6EC
:1019C000F894DEBF0FBECDBFDF91CF911F910F9175
:1019D000FF90EF90DF90CF90BF90AF909F908F904F
:1019E0007F906F905F904F903F902F900895E88D7B
:1019F0008E2F90E0F9E2EF9F90011124A901485F3A
:101A00005D4F5A834983598D5111A6C0AEA1AF5F76
:101A1000AEA3A53009F41EA2B1E12EA1B29FF00140
:101A20001124ED5EFA4FA9E2A89FA001A99F500DD5
:101A30001124485F5D4F7A01DA018C918083119601
:101A40004D915D916D917C911497DB01CA0123E06A
:101A5000880F991FAA1FBB1F2A95D1F781839283F4
:101A6000A383B483D70115964D915D916D917C91BF
:101A70001897DB01CA0133E0880F991FAA1FBB1F0B
:101A80003A95D1F785839683A783B087D7011996B6
:101A90004D915D916D917C911C97DB01CA0143E0F2
:101AA000880F991FAA1FBB1F4A95D1F7818792877C
:101AB000A387B487D7011D966D917D918D919C91DF
:101AC00050978B019C0153E0000F111F221F331F01
:101AD0005A95D1F7058716872787308B0E94C43621
:101AE0006AAF7BAF8CAF9DAFF70125A136A147A1AF
:101AF00050A50E941C366FA378A789A79AA79B01BF
:101B0000AC0160E070E080EA9FE30E941C366AABA3
:101B10007BAB8CAB9DABFFADFF2309F481C02C895F
:101B20003D894E895F896C897D898E899F890E9454
:101B30007438D70151966D937D938D939C935497F0
:101B4000BC89BF87ED89E88BFE89F98B2F892A8BA9
:101B50001EAA1FAA18AE19AEE981FA8141A052A0AF
:101B600063A074A0A301920160E070E080E09FE3B5
:101B70000E941C366B837C838D839E83A981BA81EE
:101B800095961C9195979696BC91B98FE981FA81AB
:101B9000F7A1FB8BA981BA8198960C9198975196E1
:101BA000CD90DD90ED90FC905497BFADBB2309F430
:101BB00045C0A70196010E9474389B01AC01612FBA
:101BC000798D8B89902F0E941C356B837F838D8745
:101BD0009E8720E030E0A9010E94123687FFF6C000
:101BE000A3019201C301B2010E941D35212F398D3D
:101BF0004B89502F0E9474389B01AC01C701B6017C
:101C00000E941C350E9413396C8B7D8B8E8B9F8BB1
:101C1000198EE2E0EB8B1B821F821D861E86DDC0C3
:101C2000D70151966D917D918D919C9154970E9411
:101C300013396F87788B898B9A8B8ACFE88DEF5F0A
:101C4000E23109F4E0E02196FFAD2197FE1709F497
:101C50009AC029E22E9FF0011124E85FFD4F6189AF
:101C60007289838994890E9413396C8B7D8B8E8B4A
:101C70009F8B2C893D894E895F896C897D898E89EE
:101C80009F890E9474386F83788789879A879B0120
:101C9000AC01C701B6010E941C352B813C814D81EE
:101CA0005E810E947438212F398D4B89502F0E94FC
:101CB0001D3520E030E040E05FE30E9474386B8720
:101CC0007C871C0120E030E0A9010E9434381816FE
:101CD0000CF050C1212F398D4B89502F6B857C859D
:101CE000C1010E94123687FF53C1A981BA815D9656
:101CF0008D909D90AD90BC9090972F8138854985AF
:101D00005A85C501B4010E941C352B813C814D814F
:101D10005E810E9474386E8F7F8F88A399A39B0188
:101D2000AC016B857C85C1010E943438181684F59E
:101D3000C501B4010E9413396A8F7B8F8C8F9D8FF0
:101D4000A7019601C501B4010E941236882309F447
:101D500030C1A7019601C501B4010E941C352B8139
:101D60003C814D815E810E9474389B01AC01612FE2
:101D7000798D8B89902F0E941C356B877C871C0185
:101D8000198E1B8A48CF1C8A1D8A1E8A1F8A71CF12
:101D9000A3019201C301B2010E941D352B853C8530
:101DA000A1010E9474382F81388549855A850E9487
:101DB0001D350E9413396A8F7B8F8C8F9D8FBB8559
:101DC000BE8FEC85EF8F28A239A2DACF198EF2E010
:101DD000FB8B1C8A1D8A1E8A1F8A5EAD452F50E030
:101DE00058AB4FA786E0849FF001859FF00D11242A
:101DF000E251FB4F9EA19283A981BA819596BC9135
:101E00002796BFAF2797E981FA81F6A12896FFAF01
:101E10002897A981BA819796BC912996BFAF299737
:101E2000E981FA81F0A52A96FFAF2A972AA93BA952
:101E30004CA95DA927966FAD279728967FAD289767
:101E40008B2F9F2F0E941C3526966CAF7DAF8EAFD7
:101E50009FAF269720E030E0A9010E94123687FF4D
:101E600006C026961CAE1DAE1EAE1FAE26972B8555
:101E70003C85A1016E8D7F8D88A199A10E941236AB
:101E80008111A0C022E02B962FAF2B9727964FAD44
:101E900027974AA328965FAD28975BA329968FAD15
:101EA00029978CA32A969FAD2A979DA38EE3C82ECF
:101EB00083ECD82E8EE2E82E89E3F82E412C512CAB
:101EC0003201A70196012BA73CA74DA75EA75B890E
:101ED000552309F487C0513009F41AC2A981BA8187
:101EE00091962D913D914D915C919497C701B601CA
:101EF0000E9474384B015C012F85388949895A89C1
:101F00000E94123687FF45C220E030E040E05FE3E8
:101F1000C501B4010E9474389B01AC016F857889BA
:101F200089899A890E941C35A70196010E947438FC
:101F30009B01AC016AA17BA18CA19DA10E941C35D3
:101F40008B012D968FAF2D972C969FAF2C979B01D1
:101F5000AC016B817F818D859E850E94123687FF43
:101F600018C2A50194016F85788989899A890E9490
:101F70001C35C9C12C892A8F3D893B8F4E894C8FD6
:101F80005F895D8F198E1B861C86212C312CF9CE22
:101F90001B87898D8C872B88302E9F859A8FA889E7
:101FA000AB8FB989BC8FEA89ED8F198EF2E0FB8B7C
:101FB00032CE1B87298D2C872B88302E198E31E04D
:101FC0003B8B29CE31E02B963FAF2B975FCF0AA3F7
:101FD0001BA32D963FAD2D973CA32C964FAD2C9770
:101FE0004DA375CFA981BA8191962D913D914D91C7
:101FF0005C919497C701B6010E9474384B015C0153
:1020000020E030E040E05FE30E9474382F8538899B
:1020100049895A890E941D35A70196010E9474388A
:102020009B01AC016AA17BA18CA19DA10E941C35E2
:102030008B012D968FAF2D972C969FAF2C972B85CC
:102040003C85A1010E94123687FF55C12B853C8536
:10205000A10127966FAD279728967FAD28972996DF
:102060008FAD29972A969FAD2A970E941C359B0118
:10207000AC010E941D356B017C012A8D3B8D4C8D7E
:102080005D8D6F85788989899A890E941D359B01AC
:10209000AC01C701B6010E941C366B017C012B9676
:1020A000BFAD2B97BB8BEA8DEF87FB8DF88B2C8D0B
:1020B000298B3D8D3A8B0B851C852D962FAE2D9748
:1020C0002C963FAE2C97A7019601C301B2010E9446
:1020D0001D352B013C012BA53CA54DA55EA50E94FD
:1020E000123687FF83C1A30192016BA57CA58DA544
:1020F0009EA50E941C356B017C0198012D964FAD69
:102100002D972C965FAD2C976B817F818D859E8559
:102110000E94123687FD5BCF2FA138A549A55AA58D
:10212000B8012D968FAD2D972C969FAD2C970E94C0
:1021300074386AA37BA38CA39DA30E94FB356B011B
:102140007C016AAD7BAD8CAD9DAD0E94FB354B0132
:102150005C01A70196010E941C350E9495366BA771
:102160007CA78DA79EA746E02FA538A9429FF00126
:10217000439FF00D1124E251FB4F8BA59CA5918349
:102180008083892B09F055C1BFADBB2309F451C130
:102190008A8D9B8DAC8DBD8D809385059093860532
:1021A000A0938705B09388058E8D9F8DA8A1B9A1B6
:1021B0008093910590939205A0939305B093940515
:1021C0008B819F81AD85BE8580937D0590937E0533
:1021D000A0937F05B09380058C899D89AE89BF89C6
:1021E0008093890590938A05A0938B05B0938C0505
:1021F000EB89E0937C058B859C85D10180938D05CF
:1022000090938E05A0938F05B0939005FEADF0934B
:1022100012052EA120936A0549815A8150936905C0
:10222000409368058AA99BA9ACA9BDA980937405B0
:1022300090937505A0937605B0937705988D90934C
:10224000EA042FA138A549A55AA52093700530931B
:1022500071054093720550937305398D30936B056A
:1022600049A94093ED0410928105109282051092C5
:1022700083051092840510927805109279051092CA
:102280007A0510927B05C0926C05D0926D05E092A4
:102290006E05F0926F052FA138A549A55AA5C70173
:1022A000B6010E941C36A981BA8195966D937D93E3
:1022B0008D939C9398970E94C404B88DB0930702A5
:1022C000C45BDF4F0FB6F894DEBF0FBECDBFDF910A
:1022D000CF911F910F91FF90EF90DF90CF90BF9023
:1022E000AF909F908F907F906F905F904F903F90B6
:1022F0002F900C944F06A50194016F8578898989E8
:102300009A890E941D356F87788B898B9A8BDBCEDB
:102310002A8D3B8D4C8D5D8DC701B6010E947438AE
:102320009B01AC016AA17BA18CA19DA10E941C35DF
:102330008B012D968FAF2D972C969FAF2C979B01DD
:10234000AC016E8D7F8D88A199A10E94343818163A
:102350000CF0B9CE2E8D3F8D48A159A16AA17BA169
:102360008CA19DA10E941C352A8D3B8D4C8D5D8DCD
:102370000E941C366B017C010E8D1F8D48A12D968D
:102380004FAF2D9759A12C965FAF2C9782E08B8B86
:102390009ACE2B813F814D855E856AA17BA18CA160
:1023A0009DA10E941C359B01AC010E941D356B0153
:1023B0007C012C893D894E895F896F85788989895F
:1023C0009A890E941D359B01AC01C701B6010E948C
:1023D0001C366B017C010B811F81BD852D96BFAF23
:1023E0002D97EE852C96EFAF2C976DCE26962CADC3
:1023F0003DAD4EAD5FAD2697B8012D968FAD2D97B3
:102400002C969FAD2C970E94343818160CF084CE71
:102410002EE333EC4EE259E36BA57CA58DA59EA57A
:102420000E941D356BA77CA78DA79EA7A3019201D3
:1024300060CE2EA93FA948AD59ADC301B2010E949B
:102440001D352B013C012AA13BA14CA15DA1C50179
:10245000B4010E941C359B01AC01C301B2010E9472
:102460001C364B015C012AA13BA14CA15DA1C70117
:10247000B6010E941C35A50194010E9474386EAB10
:102480007FAB88AF99AF20EC31EE44E65EE4C50146
:10249000B4010E9474380E94FB350E949536603D5D
:1024A000E7E07E078105910508F045C046E02FA5CD
:1024B00038A9429FF001439FF00D1124E251FB4FD8
:1024C000158246E02FA538A9429FF001439FF00DE9
:1024D0001124E251FB4F74836383B9A8B39496E04F
:1024E000B91201C0B12C98012D964FAD2D972C96A5
:1024F0005FAD2C976B817F818D859E850E94123602
:1025000087FF72C0C8012D96AFAD2D972C96BFAD39
:102510002C97E981FA8185A396A3A7A3B0A7FAA176
:10252000FAAF2BA12BAF3CA13CAF4DA14DAF49A9B8
:102530004EAFB9AA09C9603A5FE0750781059105F8
:10254000A0F526E0AFA5B8A92A9FF0012B9FF00DBA
:102550001124E251FB4F31E0358346E02FA538A925
:10256000429FF001439FF00D1124E251FB4F258162
:10257000022E04C096958795779567950A94D2F7B1
:10258000ABA5BCA502C0AA0FBB1F2A95E2F7B18379
:10259000A08361157105B1E08B07910508F491CF17
:1025A0008FEF9FEF9483838398CF60344FE174075C
:1025B0008105910560F426E0AFA5B8A92A9FF00136
:1025C0002B9FF00D1124E251FB4F32E0C5CFA6E066
:1025D0004FA558A9A49FF001A59FF00D1124E25129
:1025E000FB4FB3E0B583B9CF20E030E0A901B801DB
:1025F0002D968FAD2D972C969FAD2C970E94343839
:1026000018160CF06BC08A8D9B8DAC8DBD8D8093A0
:10261000850590938605A0938705B09388058E8DD8
:102620009F8DA8A1B9A18093910590939205A09345
:102630009305B09394058B819F81AD85BE85809372
:102640007D0590937E05A0937F05B09380058C89CE
:102650009D89AE89BF898093890590938A05A0934F
:102660008B05B0938C055B8950937C058B859C858D
:10267000D10180938D0590938E05A0938F05B09323
:10268000900589A9809312059EA190936A05A9815E
:10269000BA81B0936905A09368052AA93BA94CA902
:1026A0005DA920937405309375054093760550938A
:1026B0007705388D3093EA048FA198A5A9A5BAA50E
:1026C0008093700590937105A0937205B093730584
:1026D000998D90936B05B092ED04C5CD2196EFAD29
:1026E0002197F88DEF1779F08F2F8F5F823109F4E2
:1026F00080E0288D22963FAD2297231303C02296B7
:102700008FAF2297888F1A82198211CF20E030E094
:10271000A9016F85788989899A890E941236811169
:102720000C94180B4AC9CF92DF92EF92FF921F933D
:10273000CF93DF93CDB7DEB7362F142FCDB6DEB6ED
:102740004DB75EB7411B51090FB6F8945EBF0FBE7F
:102750004DBF4F5F5F4F7A01242FFA01632F0E9414
:102760007D3991939E2F921B9117C0F3F701E10FD2
:10277000F11D31978081805D0E942A051150B1F7CB
:102780000FB6F894DEBE0FBECDBEDF91CF911F9184
:10279000FF90EF90DF90CF90089541E08A3020F0D5
:1027A00043E0843608F442E06AE00C949313CF933C
:1027B000C82F8BE097E00E941E06EFEFEC0FE6318A
:1027C00008F04BC0F0E0E951FC4E0C94AB39FD131E
:1027D000061409140C140F141214151418141B14D5
:1027E0001E1421142D142D142D142D142D142D14FC
:1027F0002D142D14271424142A1483EF96E00E941C
:102800001E068CEF95E0CF910C941E0681EE96E0AB
:10281000F6CF8FEC96E0F3CF85EC96E0F0CF84EB2B
:1028200096E0EDCF85EA96E0EACF84E896E0E7CF40
:102830008BE796E0E4CF80E796E0E1CF8DE596E088
:10284000DECF8FE496E0DBCF89E396E0D8CF85E258
:1028500096E0D5CF81E196E0D2CF8FEF95E00E9450
:102860001E068C2F0E94CD13CCCF811104C083E1B2
:1028700097E00C941E060C94D7138F929F92AF9200
:10288000BF92EF92FF920F931F93CF9386EF95E045
:102890000E941E0686E4E82E86E0F82E07EE15E07C
:1028A000C0E0F70161917191819191917F01F801EF
:1028B00081909190A190B1908F010E94C636A501A0
:1028C00094010E941C360E941006C23021F084EF51
:1028D00095E00E941E06CF5FC33019F782EF95E0A6
:1028E0000E941E06809152060E94CD138EEE95E046
:1028F000CF911F910F91FF90EF90BF90AF909F905D
:102900008F900C941E066F927F928F929F92AF923F
:10291000BF92CF92DF92EF92FF920F931F93CF93CC
:10292000DF93CDB7DEB768970FB6F894DEBF0FBE62
:10293000CDBF01E098E0A92E20E2922E30E1B32E27
:1029400040E4842E52E0752E109135061123A9F132
:102950000093370611FF50C08FE093E00E941E06DF
:1029600084E093E00E941E068CEC92E00E941E061A
:1029700084EF91E00E945E0A10FF18C08BE897E098
:102980000E941E0689E797E00E941E0688E197E0F4
:102990000E941E069FB7F8948091E5058F7E809374
:1029A000E5059FBF8091E50584FFFCCF8FB7F894C4
:1029B00090913506109235068FBF1091E5051123D1
:1029C00009F4C4C114FF3CC081E0809336066896C8
:1029D0000FB6F894DEBF0FBECDBFDF91CF911F9130
:1029E0000F91FF90EF90DF90CF90BF90AF909F90AE
:1029F0008F907F906F90089512FF07C08FE093E053
:102A00000E941E0689EF92E0ADCF13FF07C08FE052
:102A100093E00E941E0686EE92E0A4CF14FF07C04A
:102A20008FE093E00E941E068BED92E09BCF15FF96
:102A3000A3CF8FE093E00E941E068FEC92E092CF2E
:102A400010FFCFC08CE0EAE3F6E0DE011D960190B6
:102A50000D928A95E1F780913706843009F49DC183
:102A600008F085C1813009F49BC108F48EC1823021
:102A700009F499C180911B06837039F0BE01635F30
:102A80007F4FCE0101960E94880480911B0680FF33
:102A90001BC087E393E00E941E06CE0101967C01D5
:102AA000D12CF70161917191819191917F010E94E7
:102AB0001006F2E0DF1621F085E393E00E941E0687
:102AC000D39423E0D212EDCF80911B0681FF4BC03F
:102AD0008EE293E00E941E06CE0101967C0180EBFF
:102AE000C82E86E0D82E612CF601619171918191FA
:102AF00091916F0120853185428553850E941D3556
:102B00009B01AC01F70160817181828193810E94F8
:102B10001C35F70161937193819391937F01F2E0EA
:102B20006F120EC02091C8063091C9064091CA06A6
:102B30005091CB060E941C3569877A878B879C87CA
:102B4000F701349760817181828193810E94100620
:102B500022E0621621F08CE293E00E941E0663944C
:102B600083E06812C1CF80911B0682FF0EC086E20F
:102B700093E00E941E068091EB049091EA0489176D
:102B800008F417C1891B0E94CD1380911B0683FF97
:102B90000EC081E293E00E941E069091DF018091B9
:102BA000E001891708F407C1891B0E94CD138091A9
:102BB0001B0684FF0AC08BE193E00E941E060E9460
:102BC000BA0743E062E00E94931387E193E00E941A
:102BD0001E069FB7F8948091E5058E7F8093E505EA
:102BE0009FBF812F887609F444C0809137068823DF
:102BF00049F0982F9C77A9F1883021F40E94C404F1
:102C00000093380680913706811102C07092380611
:102C100016FF09C0883011F480923706809138067B
:102C200088608093380613FF05C08091370685FFC2
:102C3000B092370615FF15C08BE897E00E941E067C
:102C400087E397E00E941E0688E197E00E941E0637
:102C50008091380681FD14608460809338069092DC
:102C600037069FB7F8948091E50587798093E5054D
:102C70009FBF11FF4BC0812F887609F03FC0809124
:102C80003706882331F08075C9F18091380681FFBD
:102C900035C08091380682FF1EC080919606882339
:102CA00071F0409197065091980660919906709145
:102CB0009A060E94CC0880EA9FE00E945E0A8091FA
:102CC0009506882341F0823009F077C0439A88EE58
:102CD00093E00E945E0A9091EB048091EA049817B9
:102CE00009F46EC08091380683FD6AC0A092370651
:102CF0000E94EA0A0E940305109238069FB7F894D2
:102D00008091E5058D7F8093E5059FBF12FF1EC072
:102D100080913706807309F456C08091390681117D
:102D200052C08091380682FF04C00E9424050E9490
:102D3000CA08809138068260809338069FB7F8945D
:102D40008091E5058B7F8093E5059FBF80913706D5
:102D50008C7711F00E94EA0A80913806909137062C
:102D60009032B1F581FF34C0B0923706EDCD80319D
:102D700089F030F4883009F07DCE8EE593E007C00D
:102D80008032A1F08034C9F375CE83E693E00E94CF
:102D90001E0670CE88E593E0FACF82E593E0F7CF88
:102DA0008BE493E0F4CF84E493E0F1CF8EE393E0FF
:102DB000EECF8E5EE7CE8058F7CE0E94CA0887CF4E
:102DC0001092370699CF1092380610923706B6CF78
:102DD0008111BACDFCCD0E9453050E9483148091CD
:102DE000360681110AC09091EB048091EA04981391
:102DF000F4CF80913706883081F3089548E062E08F
:102E00000C949313FF920F931F93CF93DF938AEE4B
:102E100095E00E941E06809117060E94CD1381ED59
:102E200095E00E941E0680911A060E94CD1383EB46
:102E300095E00E941E06809118060E94CD138AE933
:102E400095E00E941E06809118060E94FE1683E9F6
:102E500095E00E941E06809119060E94CD138BE713
:102E600095E00E941E06809119060E94FE1684E7D6
:102E700095E00E941E068091240682FB882780F937
:102E80000E94CD1383E595E00E941E0680912406E2
:102E900086FB882780F90E94CD1383E395E00E948A
:102EA0001E0680912406881F8827881F0E94CD1344
:102EB00083E195E00E941E0680911B060E94CD13BF
:102EC0008DEF94E00E941E0680911B060E94FE1664
:102ED00085EF94E00E941E0660911C0670911D060D
:102EE00080911E0690911F060E94FF0585ED94E0DB
:102EF0000E941E0660912006709121068091220694
:102F0000909123060E94FF058AEB94E00E941E0622
:102F10008091240681700E94CD138DE994E00E9477
:102F20001E068091240685FB882780F90E94CD1318
:102F300082E894E00E941E068091240683FB882785
:102F400080F90E94CD1387E694E00E941E068091CE
:102F50002406829581700E94CD138BE494E00E9438
:102F60001E06809125060E94CD1381E394E00E9405
:102F70001E06809125060E94FE1689E294E00E94BA
:102F80001E06609126067091270680912806909172
:102F900029060E94FF058CE094E00E941E066091C5
:102FA0002A0670912B0680912C0690912D060E9486
:102FB000FF058FEE93E00E941E0680912E060E9470
:102FC000CD1380ED93E00E941E0660913006709153
:102FD000310680913206909133060E94FF0587EBFF
:102FE00093E00E941E0684E6F82EC0E007EE15E08E
:102FF000D0E085EB93E00E941E068D2F8F0D0E947E
:10300000CD1383EB93E00E941E06C23009F447C043
:10301000F801C33009F44FC0C130E1F16081718122
:10302000828193810E94FF0580EB93E00E941E063F
:103030008CEA93E0D13031F08EEA93E0D23011F493
:103040008AEA93E00E941E068DE793E0C23051F0B9
:103050008DE693E0C33031F080EA93E0C13011F4A3
:103060008EE893E00E941E0689E693E00E941E0609
:10307000DF5F0C5F1F4FD33009F0BBCFFAE0FF0ECC
:10308000CF5F8CE8F812B2CFDF91CF911F910F91F3
:10309000FF9008956485758586859785C3CF20E068
:1030A00030E041E655E4F801608D718D828D938D9D
:1030B0000E941C36B7CF64A175A186A197A1905834
:1030C000B1CF2F923F924F925F926F927F928F92E9
:1030D0009F92AF92BF92CF92DF92EF92FF920F93A7
:1030E0001F93CF93DF93CDB7DEB7E3970FB6F89476
:1030F000DEBF0FBECDBF498F5A8F6B8F072F2BAB13
:103100002091EB042CA7422F50E059A348A3E9E2F9
:103110002E9F90011124F901E85FFD4F1586168658
:103120001786108A15A216A217A210A6108249E9C6
:1031300056E766E97EE741A352A363A374A31C018B
:1031400047EE55E05DA34CA3CE0101969F8F8E8F75
:1031500041E051E05EA74DA7C901875F9D4F9BA746
:103160008AA79E01235F3F4F3BA32AA338AB2FA71B
:103170005FA34EA387EE95E09D8F8C8F10E03F01FB
:103180003D96FAABE9AB2301F5E24F0E511CF1017C
:1031900061917191819191911F01EC8DFD8D8190D3
:1031A0009190A190B190FD8FEC8FA50194010E94A8
:1031B00074380E944138EE8DFF8D61937193819335
:1031C0009193FF8FEE8FEEA1FFA1C190D190E1907E
:1031D000F190FFA3EEA36C197D098E099F099B0155
:1031E000AC0197FF07C022273327A901261B370B05
:1031F000480B590BEAA5FBA52193319341935193B9
:10320000FBA7EAA7E9A9FAA9C080D180E280F380F0
:10321000C216D306E406F50610F469017A01E9A99D
:10322000FAA9C082D182E282F3820E94C636A50149
:1032300094010E941C364B015C01EFA5F8A9819214
:103240009192A192B192F8ABEFA720E030E0A901F2
:103250000E94123687FF0BC090E2112321F090E804
:10326000113009F490E4F3018081892B8083A5015A
:103270009401C501B4010E947438F20120813181AA
:10328000428153810E941D35F201608371838283E4
:1032900093831F5F133009F07ACF0E9413394B01DB
:1032A0005C01F20180829182A282B382CD28CE2875
:1032B000CF2809F416C220E030E0A901698D7A8D8B
:1032C0008B8D902F0E94123687FD83C1FBA9FF23AF
:1032D00061F0A5019401698D7A8D8B8D902F0E94EC
:1032E0007438698F7A8F8B8F092F20E030E040E8A7
:1032F0005FE3698D7A8D8B8D902F0E94123687FF48
:1033000005C0198E1A8E20E82B8F0FE3A5019401BA
:1033100060E070E080E89FE30E941C366EA37FA30C
:1033200088A799A78AA19BA10C969BA78AA7C12CC5
:10333000D12C760129E2E8A1F9A12E9FC0012F9F8F
:10334000900D11249C01275D3D4F3F8F2E8FEAA1E8
:10335000FBA181909190A190B190FBA3EAA320E002
:1033600030E0A901C501B4010E941236882309F496
:1033700073C02EA13FA148A559A5C501B4010E9463
:1033800074382B013C01EAA1FBA1349740825182A1
:1033900062827382AC019B0160E070E080E89FE391
:1033A0000E941C364B015C01E894B7F8ECA1FDA12A
:1033B0002485358546855785C501B4010E9474383A
:1033C0001B018C8F192F298D3A8D4B8D502F0E9408
:1033D000343818162CF0298E3A8EFC8DFB8F012F75
:1033E000EE8DFF8D20803180F281FC8FEE8DFF8D80
:1033F0001381ECA1FDA1208D318D428D538DC5012E
:10340000B4010E9474384B015C019B01AC01B10115
:103410008C8D912F0E94123687FD03C01401AC8E53
:103420001B2DC101AC8DB12FEE8DFF8D808391835B
:10343000A283B383EDA5FEA52485358546855785F2
:10344000C301B2010E9474389B01AC01C701B601EF
:103450000E941C356B017C012DA53EA52C5F3F4FC2
:103460003EA72DA74CA15DA14C5F5F4F5DA34CA370
:103470008AA59BA5EAA1FBA18E179F0709F067CF3C
:103480008091EA04FCA5F813ACC089E228A139A117
:10349000829FF001839FF00D1124E85FFD4F118A98
:1034A000128A138A148A118E128E138E148E298D0D
:1034B0003A8D4B8D502F698D7A8D8B8D902F0E9478
:1034C00074387B018C0189E228A139A1829FF00127
:1034D000839FF00D1124E85FFD4FC701D801858F50
:1034E000968FA78FB0A3A18CB28CC38C848C609074
:1034F000190170901A0190901B01D0901C0193014A
:10350000492D5D2DB701C8010E94123687FF03C007
:103510003701902ED12E9301492D5D2DB5018C2DB3
:10352000982D0E94123687FD03C05301C92C8D2CA3
:1035300089E248A159A1849FF001859FF00D1124D3
:10354000E85FFD4FC501AC2DB82D858B968BA78B01
:10355000B08F8CE0FE013D96ADE0B1E001900D92A0
:103560008A95E1F7C701D8018093190190931A0158
:10357000A0931B01B0931C018CE0FE013196A1E0E9
:10358000B1E001900D928A95E1F78091000180935E
:10359000EB048F5F823109F480E080930001E396B1
:1035A0000FB6F894DEBF0FBECDBFDF91CF911F9154
:1035B0000F91FF90EF90DF90CF90BF90AF909F90D2
:1035C0008F907F906F905F904F903F902F900C94D2
:1035D0004F0639E9398F46E74A8F56E95B8F0EE788
:1035E00095CE2FEE3FEF4FE75FE3C701B6010E9494
:1035F000343818165CF489E248A159A1849FF0017F
:10360000859FF00D1124E85FFD4F4DCF2FEE3FEF6A
:103610004FE75FEBC701B6010E943438181644F03B
:103620008FEEC82EDD24DA948FE7E82E8FEBF82E8C
:10363000A701960160E070E080E89FE30E941C35DE
:1036400020E030E040E05FE30E9474380E941339CC
:103650006B017C0189E228A139A1829FF001839F3F
:10366000F00D1124E85FFD4F20911C0630911D06DE
:1036700040911E0650911F0661A172A183A194A1E1
:103680000E947438A70196010E9474384B015C01B6
:10369000A701960160E070E080E89FE30E941C357E
:1036A0009B01AC01C501B4010E941C366B017C0179
:1036B00020E030E0A9010E94123687FF03C0C12C30
:1036C000D12C760189E248A159A1849FF001859F00
:1036D000F00D1124E85FFD4FC18ED28EE38EF48E83
:1036E000E6CEE3960FB6F894DEBF0FBECDBFDF91F6
:1036F000CF911F910F91FF90EF90DF90CF90BF90EF
:10370000AF909F908F907F906F905F904F903F9081
:103710002F9008952F923F924F925F926F927F92D7
:103720008F929F92AF92BF92CF92DF92EF92FF92D1
:103730000F931F93CF93DF934C012A013B01222E5D
:103740008091240685FF48C030903906E40107EED9
:1037500015E054018CE0A80EB11CC990D990E990F5
:10376000F99020E030E0A901C701B6010E94343889
:1037700018160CF444C0F80124A135A146A157A1A4
:10378000C701B6010E94123687FD39C03320D1F13E
:103790003092390680913706883091F49FB7F894BB
:1037A0008091E50588608093E5059FBF0E948314A2
:1037B00080913606811110C0809137068111F6CFB5
:1037C0000E94BF0A9FB7F894809135068560809368
:1037D00035069FBF0E94831480913706823099F18D
:1037E0000E9483148091360681112DC09091EA04C5
:1037F0008091000198130FC00E945305F1CF33242C
:103800003394C6CF0C5F1F4FCA15DB0509F0A5CF57
:1038100010923906E1CF222DB301A201C401DF913C
:10382000CF911F910F91FF90EF90DF90CF90BF90BD
:10383000AF909F908F907F906F905F904F903F9050
:103840002F900C946118DF91CF911F910F91FF90F1
:10385000EF90DF90CF90BF90AF909F908F907F9030
:103860006F905F904F903F902F9008952F923F92CE
:103870004F925F926F927F928F929F92AF92BF9280
:10388000CF92DF92EF92FF920F931F93CF93DF932C
:10389000CDB7DEB7E3970FB6F894DEBF0FBECDBF4E
:1038A000E4E5F6E089E3DF011D928A95E9F78AE015
:1038B000EDE8F6E0A5E5B6E001900D928A95E1F716
:1038C0001D8E312C212CF12CE12C19A210E01E8E22
:1038D00044244394512C97E0692E22E0722E8D8D62
:1038E000E82FF0E0EB56FA4FC080C11026C011233C
:1038F00029F0BE8DB11102C0E2E0EE8F25FE0FC0AF
:103900008091700690917106A0917206B091730635
:1039100080389649A849B10514F00C946B26809123
:103920005606813009F085C22E8D223009F0A1C2E1
:1039300020FC9FC286E10C949D269FEB9C0D9A3142
:1039400010F00C9463268F5F8D8FBE01675E7F4FF2
:10395000CE014D960E94DB03882311F40C9465265A
:10396000898C9A8CAB8CBC8CC501B4010E945739F0
:103970000E949536062F70E090E080E00E94C636E7
:103980009B01AC01C501B4010E941C3520E030E070
:1039900048EC52E40E9474380E94E1380E94953647
:1039A000B7E4CB1629F1EDE4CE1609F45AC1EAEBDF
:1039B000EC0DE53108F02CC00E2E000CFF0BED5184
:1039C000F34E0C94AB39741E081D081D9F1EAC1ECF
:1039D000B91EC61E081DCA1E081DD81E081DE21EDF
:1039E000EC1E171F081D081D081DF61E011F0C1FC9
:1039F000083209F42FC1A0F5043168F4013108F050
:103A0000ECC0043009F473C0C8F00A3009F462C095
:103A100084E10C949D260C3109F45CC050F406310D
:103A2000B8F7043109F003C181E08093570606E03E
:103A300062C00E3109F44EC0063251F79E8D9111CD
:103A400053C0023009F4A5C008F083C0002309F474
:103A500095C0013009F498C001E092E09E8F4BC000
:103A60000D3309F4F1C0E8F4053309F46AC088F4B1
:103A70000B3211F0013361F62E8D211135C0013367
:103A800009F0D8C010925A0633E03E8F08E00C943B
:103A90008F260C3308F0BCCF065300935B0609E079
:103AA0002AC00C3550F40A3508F0A6C0003509F0DC
:103AB000AFCFF8E0F093550670C00C3559F00F35D4
:103AC00008F0A6CF0D3509F0AFC081E0809356060F
:103AD00005E011C06115710511F00C94CD26FE8D25
:103AE000FF2311F40C94712688E10C949D2681E04B
:103AF0008093540600E0672B11F40C948F2687E125
:103B00000C949D2621E02E8F70925406F3CF83E013
:103B1000809354060C948E26A1E0AE8F611571053A
:103B200049F06A30710509F073CFE6E0E09354067E
:103B30000C948E26B5E0B09354060C948E26F1E0DA
:103B4000FE8F60925406D6CF38E0309354060C9422
:103B50008E26033021F1063209F07ECF6E317105D9
:103B600081F118F56431710509F052CF24E02093FA
:103B7000550632E03E8F01E00C948F2610925506D8
:103B800001E0A2E0AE8FB7CF00935506B2E0BE8F42
:103B9000B2CF00935506E2E0EE8F01E0ACCF009388
:103BA000550601E0F2E0FE8FA6CF6832710579F08C
:103BB0006233710509F02CCF60925506E2E0EE8F7A
:103BC000DACF85E08093550692E09E8FD4CFA6E0B1
:103BD000A0935506B2E0BE8FCECF023131F0033153
:103BE00041F01092590602E086CF81E08093590699
:103BF000FACF70925906F7CF6115710559F40A355D
:103C000029F41092580603E00C948F2681E08093EB
:103C10005806F9CF6A30710509F0FACE0A3509F471
:103C2000F7CE04E00C948F261092560651CF1092D6
:103C30005706FDCE6A30710509F0EACE81E0809327
:103C40005A0683E08E8F22CF672B09F0E1CE0AE07F
:103C50000C948F2607E04FCF00E0A1E0AE8F0C94CC
:103C60008F26672B09F04BCF0630B0F40330F8F005
:103C7000043041F1053049F181E080935E068CE02B
:103C8000F20102C0EE0FFF1F8A95E2F7CF01970104
:103C90002E2339230C949826083008F4B9CE0A3024
:103CA000B8F00E3109F0B4CE70925C0609C0023053
:103CB000D9F30E31C9F3011103C081E080935C0692
:103CC0008BE0DECF70925E06DACF10925E06D7CF21
:103CD000093021F070925D068DE0D2CF10925D0622
:103CE000FBCFE82AF92AFBCD80925F06909260060E
:103CF000A0926106B092620680E06201082E02C0C6
:103D0000CC0CDD1C0A94E2F7960122213321232BEF
:103D100009F0DDC7A1E6B3E002C0B595A7958A9585
:103D2000E2F7A0FF09C020E030E0A901C501B4011D
:103D30000E94123687FDCDC72C283D28D0CD809219
:103D4000630690926406A0926506B0926606F9A199
:103D5000F160F9A381E0D1CF809267069092680666
:103D6000A0926906B0926A0629A1226029A382E086
:103D7000C4CF80926B0690926C06A0926D06B092B2
:103D80006E0639A1346039A383E0B7CF00936F0684
:103D900084E0B3CFC501B4010E948E3660937006F3
:103DA00070937106809372069093730685E0A5CF99
:103DB0008092740690927506A0927606B09277066D
:103DC00086E09BCF8092780690927906A0927A0640
:103DD000B0927B0687E091CF80927C0690927D0620
:103DE000A0927E06B0927F0688E087CF80928106FF
:103DF00090928206A0928306B092840611608AE0B7
:103E00007CCF8092850690928606A0928706B0921B
:103E1000880612608BE071CF8092890690928A06A4
:103E2000A0928B06B0928C0614608CE066CF89E07D
:103E300064CF80918E0681111CC020FE34C0809119
:103E400057068130B1F423E333E34BEC51E4609146
:103E50005F067091600680916106909162060E94F3
:103E6000743860935F067093600680936106909348
:103E7000620630FC10C08091970690919806A09140
:103E80009906B0919A0680937C0690937D06A09344
:103E90007E06B0937F06809154068130B9F426FCEB
:103EA00013C08CE14AC780919B0690919C06A0911B
:103EB0009D06B0919E0680935F0690936006A09346
:103EC0006106B0936206D5CFE89426F88091590632
:103ED000882349F0813009F4A6C01BA692E09AA776
:103EE000A1E0A9A705C032E03BA781E08AA719A6F7
:103EF00080915706813069F504E5A02E06E0B02ECA
:103F0000D12CC12C812E912CC4010C2C02C0959572
:103F100087950A94E2F780FF12C023E333E34BEC6A
:103F200051E4D5019D966D917D918D919C91D09795
:103F30000E947438F50165A776A787A790ABFFEFBD
:103F4000CF1ADF0A24E0A20EB11C33E0C316D1045D
:103F5000D9F68E8D833041F480915A06813021F458
:103F600085E2143009F0E9C68CE0E0EBF6E0DE0112
:103F70001D9601900D928A95E1F7F1FC5AC00091CF
:103F80005406023009F469C0083009F408C1AE8D46
:103F9000A33009F4C3C1112309F415C7B091580621
:103FA000BF8F8091C8069091C906A091CA06B091B2
:103FB000CB068DA39EA3AFA3B8A7EDE88E2EE6E0B7
:103FC0009E2EF4E5AF2EF6E0BF2ED12CC12CE12EB3
:103FD000F12CC7010C2C02C0959587950A94E2F745
:103FE00080FD4BC1F4018789908DA18DB28DF501C3
:103FF00085A796A7A7A7B0ABFFEFCF1ADF0A24E0EB
:10400000820E911C34E0A30EB11C83E0C816D104CB
:1040100001F7053009F495C1073009F49AC103305E
:1040200009F01EC185C1B1E0BBA71AA6E2E0E9A76D
:104030005FCF80915B06873010F08DE17EC6909156
:104040009306891709F49BCFBE01635F7F4F0E94DF
:104050002809811194CF87E070C6111102C08AE14E
:104060006CC6C10180759927892B09F41ACF60911C
:1040700074067091750680917606909177060E947D
:1040800057390E9495366730C0F680916F068431AB
:1040900029F0823009F0BCCC27FCBACC662309F4A5
:1040A00072C061506F8FDE0111965D01BD018F8D71
:1040B0000E942809882379F200916F068091C80632
:1040C0009091C906A091CA06B091CB068DA39EA37C
:1040D000AFA3B8A7F12CE12CD12CC12C812E912CAF
:1040E000C4010C2C02C0959587950A94E2F780FFD5
:1040F0002FC0F701EC5AF94F45A456A467A470A845
:10410000043109F044C0F701E357F94F27A530A95E
:1041100041A952A96789708D818D928D0E941C35AD
:10412000A30192010E941C35F501EE0DFF1D608375
:10413000718382839383A2E0CA120AC02DA13EA19B
:104140004FA158A50E941C3569877A878B879C8769
:10415000BFEFCB1ADB0AE4E0EE0EF11CF3E0CF1662
:10416000D10409F0BDCF2FEA222200915506083074
:1041700009F0F6C0112309F414C49E8D913009F49E
:10418000F4C18FE1DAC590915B069F8F8CCFF5016A
:10419000EE0DFF1D4082518262827382D9CF1123BE
:1041A00009F45DCF4090C8065090C9066090CA06D9
:1041B0007090CB06ADE8AA2EA6E0BA2E4E013DE0E7
:1041C000830E911CB4E5CB2EB6E0DB2EF12CE12C56
:1041D000812F90E098A38F8F8F8D98A10E2C02C015
:1041E000959587950A94E2F780FF3CC0D4012D9104
:1041F0003D914D915C91F5016789708D818D928D16
:104200000E941C35D6019D962D913D914D915C915A
:10421000D0970E941C35F60165A776A787A790ABBB
:10422000F2E0EF120CC0A30192010E941C356093D2
:10423000890670938A0680938B0690938C06FFEF15
:10424000EF1AFF0A24E0A20EB11C34E0830E911C89
:1042500084E0C80ED11C93E0E916F10409F0BCCF4C
:104260001F8E83CFF50187A590A9A1A9B2A9F60158
:1042700085A796A7A7A7B0ABE2CF073009F4BCCEBD
:10428000D5019D964D905D906D907C90D097BF8D9F
:10429000B11133C0F601EE0FFF1FEE0FFF1F2DE02F
:1042A00030E02C0F3D1FE20FF31FD4019F962D919C
:1042B0003D914D915C91D297608171818281938112
:1042C0000E941D35A30192010E941D35F50165A7CD
:1042D00076A787A790ABF2E0CF128ECE2DA13EA19C
:1042E0004FA158A50E941D356093890670938A06D8
:1042F00080938B0690938C067FCEA3019201D4010C
:1043000057966D917D918D919C915A970E941D3584
:10431000F50165A776A787A790AB6ECE053089F02B
:104320000730B9F0033009F09BCF111101C01E8E88
:10433000BE016F5F7F4F86E00E942809811190CFF8
:104340008ACE111101C01E8EBE016F5F7F4F87E0C4
:10435000F3CF80915506823008F482CF8EE1EDC410
:10436000AE8DA23009F01DC30111E8C01111FDC0CE
:10437000AEED2A22ACEF3A221E8E84E2232809F009
:10438000DCC48091700690917106A0917206B09184
:1043900073068093A0069093A106A093A206B09303
:1043A000A3068091560680938E0680915F069091B9
:1043B0006006A0916106B091620680939B0690937F
:1043C0009C06A0939D06B0939E06C0907C06D0905C
:1043D0007D06E0907E06F0907F06A7019601609131
:1043E0009706709198068091990690919A060E947E
:1043F00012368823F9F010919606112359F0809116
:104400003706823039F00E94EB16B701A601812FE2
:104410000E94CC0880917C0690917D06A0917E063A
:10442000B0917F068093970690939806A093990683
:10443000B0939A068091800680939F0610915E0645
:10444000809196068117B9F080913706823079F015
:10445000C0909706D0909806E0909906F0909A0642
:104460000E94EB16B701A601812F0E94CC08809113
:104470005E068093960610915D06809195068117E1
:1044800071F080913706823031F00E94EB161230C5
:1044900009F08CC2439A80915D06809395068091C5
:1044A0005406813009F485C28091590680939106A3
:1044B0008091570680938F06EE8DE330B9F480919A
:1044C0005A0680939206813009F0C7C2809189060E
:1044D00090918A06A0918B06B0918C068093C806B5
:1044E0009093C906A093CA06B093CB0680915B0651
:1044F00090919306981759F0809393068CE0FE01F3
:104500003D96A0EBB6E001900D928A95E1F780917F
:10451000580680939006E0915406E250E83008F087
:10452000B9C2F0E0EA56FD4D0C94AB39362565254D
:104530008025652586254A258A25902520E030E0BE
:10454000A90160915F06709160068091610690916B
:1045500062060E941236882309F4ECC9043050F434
:10456000023090F4013009F401CFBEED2B22B0EE01
:104570003B2203CF0830C8F7112309F470CD0E9405
:10458000102C882391F362C0112309F468CDF9A59A
:10459000EF2FF0E0FDA7ECA73AA5232F30E03FA7CF
:1045A0002EA781E090E07C0109A402C0EE0CFF1C64
:1045B0000A94E2F70AA402C0880F991F0A94E2F74E
:1045C000E82AF92A812F90E08E219F21892B09F476
:1045D00084C3CF01880F991F880F991FFC01EC5AE3
:1045E000F94F8357994FDC0157962D913D914D918D
:1045F0005C915A9765A576A587A590A90E941C3560
:104600004B015C018EA59FA5880F991F880F991FEC
:10461000FC01EC5AF94F8357994FDC0157962D91C5
:104620003D914D915C915A9765A576A587A590A976
:104630000E941C356DA37EA38FA398A727FEDDC023
:10464000E89427F80E94102C882311F081E275C3AA
:10465000609178067091790680917A0690917B0638
:1046600020915706213071F423E333E34BEC51E4FE
:104670000E947438609378067093790680937A0666
:1046800090937B06409078065090790660907A0669
:1046900070907B06A5019401C501B4010E94743895
:1046A00069A37AA38BA39CA32DA13EA14FA158A5DA
:1046B000CA01B9010E94743868AB79AB8AAB9BAB75
:1046C00020E030E040E850E4C301B2010E947438B9
:1046D000A30192010E94743829A13AA14BA15CA1C7
:1046E0000E941C3528A939A94AA95BA90E941C353A
:1046F0006B017C0120E030E0A9010E94123687FDA9
:10470000EEC2C701B6010E9413396B017C0128A9D2
:1047100039A94AA95BA969A17AA18BA19CA10E9490
:104720001D350E9413399B01AC01C701B601905899
:104730000E941C366B017C01033021F4F7FAF094DF
:10474000F7F8F09420E030E0A901C301B2010E9423
:10475000123687FF0FC0F7FAF094F7F8F094D30100
:10476000C201B0588093780690937906A0937A0698
:10477000B0937B060CA51DA5000F111F000F111F84
:10478000085A194FA70196016DA17EA18FA198A586
:104790000E9474389B01AC01C501B4010E941C3514
:1047A00020E030E040E05FE30E947438F801638766
:1047B0007487858796870EA51FA5000F111F000F10
:1047C000111F085A194FA7019601C501B4010E9493
:1047D00074382DA13EA14FA158A50E941D3520E09F
:1047E00030E040E05FE30E947438D8011B966D937F
:1047F0007D938D939C931E97B8CEB9A10B2F10E09B
:10480000EB22F12283E2EF2809F497C2E1EF2E2296
:1048100080915706813059F524E5C22E26E0D22E2C
:10482000F12CE12CC8010E2C02C0959587950A94B5
:10483000E2F780FF12C023E333E34BEC51E4D601EF
:104840001F966D917D918D919C9152970E94743825
:10485000F6016787708B818B928BFFEFEF1AFF0A4F
:1048600024E0C20ED11C33E0E316F104D9F6ECA526
:10487000FDA5EE0FFF1FEE0FFF1FE85AF94FC3848F
:10488000D484E584F684A7019601C501B4010E9491
:104890001C352B013C01EEA5FFA5EE0FFF1FEE0F0F
:1048A000FF1FE85AF94F83859485A585B68589A3AE
:1048B0009AA3ABA3BCA39C01AD016DA17EA18FA166
:1048C00098A50E941C354B015C01A3019201C30114
:1048D000B2010E9474382B013C01A5019401C5016D
:1048E000B4010E9474389B01AC01C301B2010E9463
:1048F0001D350E9413394B015C01A7019601C701C8
:10490000B6010E9474386B017C0129A13AA14BA128
:104910005CA1CA01B9010E9474389B01AC01C701B6
:10492000B6010E941D350E9413396B017C01C092B3
:104930007806D0927906E0927A06F0927B06AC0176
:104940009B01C501B4010E941C354B015C01E89438
:10495000B7F82AE037ED43EA5BE3C501B4010E94F2
:10496000343818160CF001CE20E030E040E05FE370
:10497000C501B4010E94343818160CF467CE2FE636
:1049800032E143E85AE3C701B6010E9474389B0143
:10499000AC01C501B4010E94343818160CF0E5CD05
:1049A00055CE9E8D992309F4E3CCDFCD0E94CA0831
:1049B00072CD80913706823009F476CDC0907406AE
:1049C000D0907506E0907606F090770620E030E013
:1049D00040EA51E4C701B6010E9474380E940137D1
:1049E0000E9495364B018B010E94EB1620E030E0CF
:1049F0004AE754E4C701B6010E9474386B017C0198
:104A000082E3889DB001899D700D112490E080E0C3
:104A10000E94C4369B01AC01C701B6010E941C353F
:104A20000E9401370E949536CB010E945E0A011553
:104A3000110509F439CD0E948314015011098091A8
:104A40003606811131CDFFEF20E732E0F1502040F2
:104A50003040E1F700C00000EACF1092C806109283
:104A6000C9061092CA061092CB0640CDBE016F5FF8
:104A70007F4F8F8D0E945808809193069F8D9813C9
:104A800009C08CE0FE013196A0EBB6E001900D92DA
:104A90008A95E1F7E0915506E0938D06E83009F438
:104AA00059C0BE8DB23009F055C0E83008F049C099
:104AB000F0E0E35AFA4D0C94AB399825CA25D52578
:104AC000EF25012610261A262526AE8DAA2349F0A9
:104AD00020E040E050E060E87FEB81E896E00E9453
:104AE0008A1B20E040E050E060E87FEBCE010196B9
:104AF0000E948A1B8CE0FE013196A4EAB6E0C6CF84
:104B000064EA76E086E00E945808C4CF64EA76E062
:104B100087E0F9CF8CE0E1E8F6E0ACEBB6E0B6CFA9
:104B2000ECEBF6E08CE0DF011D928A95E9F7B2CF5D
:104B300020E040E050E060E87FEB81E896E00E94F2
:104B40008A1B8CE0E1E8F6E0A4EAB6E001900D9261
:104B50008A95E1F780915C0680939406882309F496
:104B6000ECC00E94EB16909194068091370691302C
:104B700009F075C0823051F09FB7F8948091E50537
:104B800088608093E5059FBF0E948314109294066D
:104B900080E0D3C040919B0650919C0660919D0699
:104BA00070919E0620918E06C8CF20919B06309171
:104BB0009C0640919D0650919E06609178067091EA
:104BC000790680917A0690917B0688248394ABA421
:104BD000CAA4E9A400918E060E94E72CB2CF2091CE
:104BE0009B0630919C0640919D0650919E066091D7
:104BF00078067091790680917A0690917B06812CD7
:104C0000E6CF60919B0670919C0680919D069091E5
:104C10009E0600E020E040918E060E94512C91CF2C
:104C200060919B0670919C0680919D0690919E06D6
:104C300001E0F0CF60919B0670919C0680919D06EB
:104C400090919E0600E021E0E6CF60919B06709176
:104C50009C0680919D0690919E0601E0F4CF91E024
:104C600090938D06109291061092900610928E06E7
:104C70001092930610929606109295068230B1F02B
:104C8000BE01635F7F4F80E00E942809882309F4FA
:104C9000E2C98CE0FE013D96A0EBB6E001900D92DA
:104CA0008A95E1F70E9424050E94CA088BE897E0E4
:104CB0000E941E068FE297E00E941E0688E197E0A0
:104CC0000E941E0663CF81E038C082E036C089E1D1
:104CD00034C084E032C08BE130C080E22EC082E27A
:104CE0002CC00E3111F40C948C1D08F03FC00A301A
:104CF00011F40C94821D0C3111F00C942C1E31E037
:104D00003E8F6115710511F40C94871D6A30710591
:104D100011F00C94081D94E09093540600E0C20139
:104D200002C0880F991F0A95E2F79C012E213F21AE
:104D3000232B11F40C94711E85E1E3960FB6F894C1
:104D4000DEBF0FBECDBFDF91CF911F910F91FF90BE
:104D5000EF90DF90CF90BF90AF909F908F907F901B
:104D60006F905F904F903F902F900895053311F40E
:104D70000C949F1D0C3511F00C942C1E21E02E8FED
:104D80006115710511F40C94A41D6A30710511F0C0
:104D90000C94081D89E00C94881D0E3111F40C94BC
:104DA0008E1D48F40A3011F40C94841D0C3109F462
:104DB000A8CF0C947F1D053311F40C94A11D0C3564
:104DC000F9F20C947F1D053009F4BDCA073009F4CF
:104DD000C0CA033009F044CAAACACF93C0E08C2FDE
:104DE0000E94AB08811109C087E00E94D713C1302F
:104DF00011F4CF910895C1E0F2CF809195058823F9
:104E0000B1F30E9446050E94361C0E943514EFCF74
:104E10002F923F924F925F926F927F928F929F92CA
:104E2000AF92BF92CF92DF92EF92FF920F931F93B8
:104E3000CF93DF93CDB7DEB767970FB6F894DEBF99
:104E40000FBECDBF909136069111F5C0782E27EE9A
:104E500035E0398B288B5901CE010D964C0110E0BD
:104E600000E0C12CD12C7601A72DB0E0BB8BAA8B22
:104E7000802F94E0002321F090E1013009F498E0C4
:104E8000F40191934F012A893B8902C035952795FA
:104E90008A95E2F720FF1BC020E030E040EC5FEB9A
:104EA000D50194966D917D918D919C9197970E94DB
:104EB0007438362E472E582E692EA70196010E946F
:104EC000123687FD04C0C32CD42CE52CF62C0F5FC2
:104ED0001F4FB4E0AB0EB11C0330110549F68090B2
:104EE0002A0690902B06A0902C06B0902D0684E008
:104EF000682E01E0442443946AE376E0CE010196F3
:104F00000E94880480912506E82FF0E0FF8BEE8B4D
:104F1000FE01319626E336E03D8B2C8B1901512C96
:104F200010E030E020E0B701A60170588A899B8923
:104F3000022E02C0959587950A94E2F780FF27C05C
:104F40005394D10114961D921D921D921C92179795
:104F50008E899F89022E02C0959587950A94E2F763
:104F600080FF07C0002339F040835183628373833D
:104F700006C00023C9F3C082D182E282F382ADE091
:104F8000B0E0AC0FBD1FA20FB31F8C91182B2F5F89
:104F90003F4F3496B4E02B0E311C2330310531F6EF
:104FA000652D70E090E080E00E94C4360E941339C5
:104FB000A50194010E9474386B017C011093530683
:104FC0000E942C0620E0B701A601CE0101960E94A6
:104FD00061180E94EA0A0E9403050023E9F00E947A
:104FE000BA07FE013D9630E020E090E06191462F47
:104FF000412359F0AC01022E02C0559547950A9401
:10500000E2F740FF02C0609516232F5F3F4F233029
:10501000310561F7109353060E94EA0A8091E50575
:10502000847309F4ACC08091E5058073E9F00E94B7
:10503000BF0A0E94831467960FB6F894DEBF0FBEB6
:10504000CDBFDF91CF911F910F91FF90EF90DF9037
:10505000CF90BF90AF909F908F907F906F905F9018
:105060004F903F902F9008950111A4C00E94BA075D
:105070008721E9F69FB7F8948091E5058B7F8093AF
:10508000E5059FBF0E94930A0E944D0A80912E065B
:1050900090912F060E945E0A042509F475C020E055
:1050A00030E040EA50E46091300670913106809122
:1050B0003206909133060E9474386B017C01809017
:1050C000260690902706A0902806B09029066A949C
:1050D000611012CF20902506312CC0903006D09060
:1050E0003106E0903206F09033062601370177FA58
:1050F000709477F8709410E000E08A899B89002E04
:1051000002C0959587950A94E2F780FF25C0E8894B
:10511000F98980809180A280B380C101002E02C0F5
:10512000959587950A94E2F780FF3FC024A135A1A9
:1051300046A157A1C701B6010E941D35A5019401E2
:105140000E9474380E944138AC89BD8914966D93D1
:105150007D938D939C9317970F5F1F4FEC89FD896B
:105160003496FD8BEC8B288939892C5F3F4F398B26
:10517000288B0330110509F60E942C065CCF812F85
:105180008C7109F02ACF7ECFC0903006D0903106C6
:10519000E0903206F090330680902A0690902B061D
:1051A000A0902C06B0902D0692CFA5019401C301CA
:1051B000B201C6CF8091E50582FF5CCF38CF1F9248
:1051C0000F920FB60F9211242F933F934F935F933B
:1051D0006F937F938F939F93AF93BF93EF93FF93BF
:1051E00086B18095982F977021F080FF13C00E94A0
:1051F000BF0AFF91EF91BF91AF919F918F917F91E6
:105200006F915F914F913F912F910F900FBE0F9033
:105210001F90189582FF06C08091E50582608093FB
:10522000E505E7CF81FFE5CF8091E5058860F7CF01
:105230001F920F920FB60F9211248F939F939BB1E1
:105240008091E2018C71937E892B8BB915BC9F9163
:105250008F910F900FBE0F901F9018951F920F9275
:105260000FB60F9211240F931F932F933F934F93D9
:105270005F936F937F938F939F93AF93BF93EF93BE
:10528000FF938091E3018111EFC19BB18091F30104
:10529000807E9F71892B8BB98BB1837E9091F201B7
:1052A000892B8BB98091F10186BD82E085BD81E0BB
:1052B0008093E30178948091050290910602892BF6
:1052C00009F0A1C08091EC0490911205981709F49F
:1052D000C1C1E091EC042E2F30E086E0E89FF001A0
:1052E0001124E251FB4FF0930602E0930502838103
:1052F000948190938900809388008081918190931C
:10530000010280930002E281809102028E1761F116
:10531000E093020281E1E89FF0011124ED5EFA4F73
:10532000F0930402E093030285859685A785B089F2
:10533000B695A795979587958093EC019093ED018D
:10534000A093EE01B093EF018093E8019093E901FF
:10535000A093EA01B093EB018093E4019093E501FF
:10536000A093E601B093E701E0910302F0910402FB
:1053700080819091E10189278093F30186E0829FEB
:10538000D001839FB00D1124A251BB4F15962C91D3
:1053900081819281A381B481022E04C0B695A79524
:1053A000979587950A94D2F78093F4019093F5012D
:1053B000A093F601B093F70185819681A781B0850E
:1053C000022E04C0B695A795979587950A94D2F7B3
:1053D0008093F8019093F901A093FA01B093FB0137
:1053E00081859285A385B48504C0B695A7959795C8
:1053F00087952A95D2F78093FC019093FD01A093A5
:10540000FE01B093FF018091E6058130B1F486B1D1
:10541000807290913406891781F01092E6058CE035
:10542000EAE3F6E0A6E4B6E001900D928A95E1F792
:105430008091E50580648093E5051092F2018091EA
:10544000E4019091E501A091E601B091E70140915E
:10545000F4015091F5016091F6017091F701840F0C
:10546000951FA61FB71F8093E4019093E501A093B9
:10547000E601B093E701E0910302F0910402458553
:10548000568567857089481759076A077B0728F58D
:1054900024E02093F201841B950BA60BB70B80939D
:1054A000E4019093E501A093E601B093E7018091B8
:1054B0003A0690913B06A0913C06B0913D062081B2
:1054C00025FFE5C00197A109B10980933A069093A1
:1054D0003B06A0933C06B0933D068091E801909175
:1054E000E901A091EA01B091EB010091F80110915E
:1054F000F9012091FA013091FB01800F911FA21F49
:10550000B31F8093E8019093E901A093EA01B0935F
:10551000EB01481759076A077B0738F52091F2011C
:1055200028602093F201841B950BA60BB70B809388
:10553000E8019093E901A093EA01B093EB01809117
:105540003E0690913F06A0914006B0914106208111
:1055500026FFA1C00197A109B10980933E0690934F
:105560003F06A0934006B09341068091EC019091D4
:10557000ED01A091EE01B091EF010091FC011091BD
:10558000FD012091FE013091FF01800F911FA21FAC
:10559000B31F8093EC019093ED01A093EE01B093C3
:1055A000EF01481759076A077B0738F52091F20188
:1055B00020612093F201841B950BA60BB70B8093FF
:1055C000EC019093ED01A093EE01B093EF01809177
:1055D000420690914306A0914406B0914506208171
:1055E00027FF5DC00197A109B109809342069093FE
:1055F0004306A0934406B093450680913706843055
:1056000039F4809153069091F20189238093F2013D
:105610008091000290910102019790930102809382
:105620000002892B69F41092060210920502809103
:10563000EC048F5F8093EC04863011F41092EC043C
:105640008091F2019091E20189278093F2011092FA
:10565000E3010AC00E94680A9FB7F8948091E505AB
:1056600084608093E5059FBFFF91EF91BF91AF915B
:105670009F918F917F916F915F914F913F912F916A
:105680001F910F910F900FBE0F901F9018950196CC
:10569000A11DB11D1ACF0196A11DB11D5ECF0196AE
:1056A000A11DB11DA2CF1F920F920FB60F92112410
:1056B0002F933F934F935F936F937F938F939F931A
:1056C000AF93BF93EF93FF938091C6008F3311F197
:1056D000B8F4883109F443C08132A9F1E091E001C6
:1056E00091E09E0F903809F490E02091DF01291796
:1056F000C9F0F0E0E15AFE4F80839093E00112C0C0
:10570000803439F18E3751F79FB7F8948091E505D1
:10571000826005C09FB7F8948091E5058160809311
:10572000E5059FBFFF91EF91BF91AF919F918F9141
:105730007F916F915F914F913F912F910F900FBE8D
:105740000F901F9018959FB7F8948091E505886099
:10575000E6CF9FB7F8948091E5058062E0CF0E9484
:10576000BF0AE0CF1F920F920FB60F9211248F93B2
:105770009F93EF93FF9380915E01E82FF0E0E25E4C
:10578000FE4F90819093C6008F5F803409F480E0D3
:1057900080935E0190911D01981305C08091C10016
:1057A0008F7D8093C100FF91EF919F918F910F901A
:1057B0000FBE0F901F9018951F920F920FB60F9269
:1057C00011242F933F934F935F936F937F938F9306
:1057D0009F93AF93BF93EF93FF93809137068130F0
:1057E00071F08091350681110AC00E94BF0A9FB7EF
:1057F000F894809135068360809335069FBFFF91B2
:10580000EF91BF91AF919F918F917F916F915F9138
:105810004F913F912F910F900FBE0F901F901895B1
:10582000CF9320918106309182064091830650915A
:1058300084066091A4067091A5068091A6069091B9
:10584000A7060E941236811128C02091850630914A
:10585000860640918706509188066091A80670914F
:10586000A9068091AA069091AB060E94123681117A
:1058700014C0C1E02091890630918A0640918B06C0
:1058800050918C066091AC067091AD068091AE0689
:105890009091AF060E9412368111C0E08C2FCF91FB
:1058A0000895CF92DF92EF92FF920F93CF93DF9301
:1058B00030913706323009F482C0D22FC42F6B01E9
:1058C0007C010E94EB1610925206109234068091D1
:1058D000240687FD03C080E280933406DD2331F087
:1058E0008091340690E289278093340686B18072D5
:1058F00090913406891751F09FB7F894809135063E
:105900008061809335069FBF0E9483148091360684
:10591000811155C02C2FB701A60181E896E00E94A5
:105920008A1B81E08093E6059FB7F8948091E50596
:1059300082608093E5059FBF0E94831480913606A4
:1059400081113DC0809137068111F6CF8091E60527
:10595000813089F5002331F18CE0EAE3F6E0A6E43A
:10596000B6E001900D928A95E1F71092E6050E944B
:10597000831480913606811122C00E94930A0E94EE
:105980004D0A0E942C066AE376E081E896E00E94C8
:105990008804DF91CF910F91FF90EF90DF90CF902F
:1059A0000C943D149FB7F8948091350680618093E4
:1059B00035069FBFDACF81E080935206D6CFDF91C4
:1059C000CF910F91FF90EF90DF90CF9008952F929D
:1059D0003F924F925F926F927F928F929F92AF927F
:1059E000BF92CF92DF92EF92FF920F931F93CF93CC
:1059F000DF93CDB7DEB7AF970FB6F894DEBF0FBE1B
:105A0000CDBF69877A878B879C872B8B3C8B4D8B8F
:105A10005E8B0F8BAD82898A24E0E29E8001112487
:105A2000C8018C55994F998F888FD801AD59B94FBE
:105A3000BB8FAA8F4D905D906D907C90FC01208172
:105A4000318142815381C301B2010E941D356C8FA7
:105A50007D8F8E8F9F8FF4E0CF9E100111249101D6
:105A60002C55394F39A328A3C1018D59994F9BA3B8
:105A70008AA3DC01CD90DD90ED90FC90F9012081AE
:105A8000318142815381C701B6010E941D356CA34B
:105A90007DA38EA39FA377FA709477F87094D701B3
:105AA000C601B05889839A83AB83BC83F801EF5752
:105AB000F94F2C8D3D8D4E8D5F8D6081718182817E
:105AC00093810E941C354B015C01F101EF57F94FA6
:105AD0002CA13DA14EA15FA1608171818281938142
